{
  "transactions": [
    {
      "hash": "0xb067fd96ff6dbf90f93f9b340c0c849f0973b36bc04fa07dc6f7c60c257f77fb",
      "transactionType": "CALL",
      "contractName": null,
      "contractAddress": "0x2b8dce2f738bbfe5f84d62f55806ae6dde68e0c0",
      "function": "initializeMarket((address,address,uint24,int24,address),bytes32,uint256,address,uint8)",
      "arguments": [
        "(0x0000000000000000000000000000000000000000, 0x9b882e879Cf9aeEa8556560E467CD3bb87Af7F77, 3000, 60, 0x2B8DCE2F738BbFE5F84D62F55806AE6dDe68E0c0)",
        "0x23f69f0ba1a2a702a2a935eb6a25ad537ffd05e5bed484159adfc5eecc102ea3",
        "1769708042",
        "0x27Bb58451a8eAbb79Af749234874Dcc8b99db40b",
        "2"
      ],
      "transaction": {
        "from": "0x0c8624c46fd46181cd032b74910ca2b7be0f2c55",
        "to": "0x2b8dce2f738bbfe5f84d62f55806ae6dde68e0c0",
        "gas": "0x2a002b",
        "value": "0x0",
        "input": "0x40f3e14100000000000000000000000000000000000000000000000000000000000000000000000000000000000000009b882e879cf9aeea8556560e467cd3bb87af7f770000000000000000000000000000000000000000000000000000000000000bb8000000000000000000000000000000000000000000000000000000000000003c0000000000000000000000002b8dce2f738bbfe5f84d62f55806ae6dde68e0c023f69f0ba1a2a702a2a935eb6a25ad537ffd05e5bed484159adfc5eecc102ea300000000000000000000000000000000000000000000000000000000697b9a0a00000000000000000000000027bb58451a8eabb79af749234874dcc8b99db40b0000000000000000000000000000000000000000000000000000000000000002",
        "nonce": "0xc",
        "chainId": "0x14a34"
      },
      "additionalContracts": [
        {
          "transactionType": "CREATE",
          "contractName": "OutcomeToken",
          "address": "0x88dbba1f3c9e954ca7dcb2bc5a39710fbfc047ca",
          "initCode": "0x60e0604052346103e55761130680380380610019816103e9565b92833981019060c0818303126103e55780516001600160401b0381116103e5578261004591830161040e565b602082015190926001600160401b0382116103e55761006591830161040e565b604082015160608301519160ff831683036103e557608084015160a0909401516001600160a01b03811695908690036103e5578051906001600160401b0382116102e85760035490600182811c921680156103db575b60208310146102ca5781601f84931161036d575b50602090601f8311600114610307575f926102fc575b50508160011b915f199060031b1c1916176003555b8051906001600160401b0382116102e85760045490600182811c921680156102de575b60208310146102ca5781601f84931161025c575b50602090601f83116001146101f6575f926101eb575b50508160011b915f199060031b1c1916176004555b83156101d857600580546001600160a01b03198116861790915560405194906001600160a01b03167f8be0079c531659141344cd1fd0a4f28419497f9722a3daafe3b4186f6b6457e05f80a360805260a05260c052610ea69081610460823960805181610787015260a051816107e1015260c0518161028a0152f35b631e4fbdf760e01b5f525f60045260245ffd5b015190505f80610147565b60045f9081528281209350601f198516905b818110610244575090846001959493921061022c575b505050811b0160045561015c565b01515f1960f88460031b161c191690555f808061021e565b92936020600181928786015181550195019301610208565b60045f529091507f8a35acfbc15ff81a39ae7d344fd709f28e8600b4aa8c65c6b64bfe7fe36bd19b601f840160051c810191602085106102c0575b90601f859493920160051c01905b8181106102b25750610131565b5f81558493506001016102a5565b9091508190610297565b634e487b7160e01b5f52602260045260245ffd5b91607f169161011d565b634e487b7160e01b5f52604160045260245ffd5b015190505f806100e5565b60035f9081528281209350601f198516905b818110610355575090846001959493921061033d575b505050811b016003556100fa565b01515f1960f88460031b161c191690555f808061032f565b92936020600181928786015181550195019301610319565b60035f529091507fc2575a0e9e593c00f959f8c92f12db2869c3395a3b0502d05e2516446f71f85b601f840160051c810191602085106103d1575b90601f859493920160051c01905b8181106103c357506100cf565b5f81558493506001016103b6565b90915081906103a8565b91607f16916100bb565b5f80fd5b6040519190601f01601f191682016001600160401b038111838210176102e857604052565b81601f820112156103e5578051906001600160401b0382116102e85761043d601f8301601f19166020016103e9565b92828452602083830101116103e557815f9260208093018386015e830101529056fe6080806040526004361015610012575f80fd5b5f3560e01c90816306fdde0314610bc357508063095ea7b314610b1657806318160ddd14610adb57806323b872dd14610947578063313ce5671461090e57806340c10f19146108055780634cbe4389146107aa5780636ed71ede1461075257806370a08231146106f0578063715018a6146106545780638da5cb5b1461060357806395d89b41146104105780639dc29fac146102fc578063a9059cbb146102ad578063bce2255714610255578063dd62ed3e146101c95763f2fde38b146100d7575f80fd5b346101c55760207ffffffffffffffffffffffffffffffffffffffffffffffffffffffffffffffffc3601126101c55773ffffffffffffffffffffffffffffffffffffffff610123610d3c565b61012b610e4c565b1680156101995773ffffffffffffffffffffffffffffffffffffffff600554827fffffffffffffffffffffffff0000000000000000000000000000000000000000821617600555167f8be0079c531659141344cd1fd0a4f28419497f9722a3daafe3b4186f6b6457e05f80a3005b7f1e4fbdf7000000000000000000000000000000000000000000000000000000005f525f60045260245ffd5b5f80fd5b346101c55760407ffffffffffffffffffffffffffffffffffffffffffffffffffffffffffffffffc3601126101c557610200610d3c565b73ffffffffffffffffffffffffffffffffffffffff61021d610d5f565b91165f52600160205273ffffffffffffffffffffffffffffffffffffffff60405f2091165f52602052602060405f2054604051908152f35b346101c5575f7ffffffffffffffffffffffffffffffffffffffffffffffffffffffffffffffffc3601126101c55760206040517f00000000000000000000000000000000000000000000000000000000000000008152f35b346101c55760407ffffffffffffffffffffffffffffffffffffffffffffffffffffffffffffffffc3601126101c5576102f16102e7610d3c565b6024359033610d82565b602060405160018152f35b346101c55760407ffffffffffffffffffffffffffffffffffffffffffffffffffffffffffffffffc3601126101c557610333610d3c565b73ffffffffffffffffffffffffffffffffffffffff60243591610354610e4c565b1680156103e457805f525f60205260405f20548281106103b2576020835f947fddf252ad1be2c89b69c2b068fc378daa952ba7f163c4a11628f55a4df523b3ef938587528684520360408620558060025403600255604051908152a3005b907fe450d38c000000000000000000000000000000000000000000000000000000005f5260045260245260445260645ffd5b7f96c6fd1e000000000000000000000000000000000000000000000000000000005f525f60045260245ffd5b346101c5575f7ffffffffffffffffffffffffffffffffffffffffffffffffffffffffffffffffc3601126101c5576040515f600454908160011c600183169283156105f9575b6020821084146105cc57818552849390811561056c57506001146104f2575b5003601f017fffffffffffffffffffffffffffffffffffffffffffffffffffffffffffffffe01681019067ffffffffffffffff8211818310176104c5576104c182918260405282610cf4565b0390f35b7f4e487b71000000000000000000000000000000000000000000000000000000005f52604160045260245ffd5b60045f90815291507f8a35acfbc15ff81a39ae7d344fd709f28e8600b4aa8c65c6b64bfe7fe36bd19b5b81831061055057505081016020017fffffffffffffffffffffffffffffffffffffffffffffffffffffffffffffffe0610475565b602091935080600191548385880101520191019091839261051c565b7fffffffffffffffffffffffffffffffffffffffffffffffffffffffffffffff001660208581019190915291151560051b840190910191507fffffffffffffffffffffffffffffffffffffffffffffffffffffffffffffffe09050610475565b7f4e487b71000000000000000000000000000000000000000000000000000000005f52602260045260245ffd5b90607f1690610456565b346101c5575f7ffffffffffffffffffffffffffffffffffffffffffffffffffffffffffffffffc3601126101c557602073ffffffffffffffffffffffffffffffffffffffff60055416604051908152f35b346101c5575f7ffffffffffffffffffffffffffffffffffffffffffffffffffffffffffffffffc3601126101c55761068a610e4c565b5f73ffffffffffffffffffffffffffffffffffffffff6005547fffffffffffffffffffffffff00000000000000000000000000000000000000008116600555167f8be0079c531659141344cd1fd0a4f28419497f9722a3daafe3b4186f6b6457e08280a3005b346101c55760207ffffffffffffffffffffffffffffffffffffffffffffffffffffffffffffffffc3601126101c55773ffffffffffffffffffffffffffffffffffffffff61073c610d3c565b165f525f602052602060405f2054604051908152f35b346101c5575f7ffffffffffffffffffffffffffffffffffffffffffffffffffffffffffffffffc3601126101c55760206040517f00000000000000000000000000000000000000000000000000000000000000008152f35b346101c5575f7ffffffffffffffffffffffffffffffffffffffffffffffffffffffffffffffffc3601126101c557602060405160ff7f0000000000000000000000000000000000000000000000000000000000000000168152f35b346101c55760407ffffffffffffffffffffffffffffffffffffffffffffffffffffffffffffffffc3601126101c55761083c610d3c565b73ffffffffffffffffffffffffffffffffffffffff6024359161085d610e4c565b169081156108e257600254908082018092116108b55760207fddf252ad1be2c89b69c2b068fc378daa952ba7f163c4a11628f55a4df523b3ef915f9360025584845283825260408420818154019055604051908152a3005b7f4e487b71000000000000000000000000000000000000000000000000000000005f52601160045260245ffd5b7fec442f05000000000000000000000000000000000000000000000000000000005f525f60045260245ffd5b346101c5575f7ffffffffffffffffffffffffffffffffffffffffffffffffffffffffffffffffc3601126101c557602060405160128152f35b346101c55760607ffffffffffffffffffffffffffffffffffffffffffffffffffffffffffffffffc3601126101c55761097e610d3c565b610986610d5f565b6044359073ffffffffffffffffffffffffffffffffffffffff831692835f52600160205260405f2073ffffffffffffffffffffffffffffffffffffffff33165f5260205260405f20547fffffffffffffffffffffffffffffffffffffffffffffffffffffffffffffffff8110610a02575b506102f19350610d82565b838110610aa7578415610a7b573315610a4f576102f1945f52600160205260405f2073ffffffffffffffffffffffffffffffffffffffff33165f526020528360405f2091039055846109f7565b7f94280d62000000000000000000000000000000000000000000000000000000005f525f60045260245ffd5b7fe602df05000000000000000000000000000000000000000000000000000000005f525f60045260245ffd5b83907ffb8f41b2000000000000000000000000000000000000000000000000000000005f523360045260245260445260645ffd5b346101c5575f7ffffffffffffffffffffffffffffffffffffffffffffffffffffffffffffffffc3601126101c5576020600254604051908152f35b346101c55760407ffffffffffffffffffffffffffffffffffffffffffffffffffffffffffffffffc3601126101c557610b4d610d3c565b602435903315610a7b5773ffffffffffffffffffffffffffffffffffffffff16908115610a4f57335f52600160205260405f20825f526020528060405f20556040519081527f8c5be1e5ebec7d5bd14f71427d1e84f3dd0314c0f7b2291e5b200ac8c7c3b92560203392a3602060405160018152f35b346101c5575f7ffffffffffffffffffffffffffffffffffffffffffffffffffffffffffffffffc3601126101c5575f600354908160011c60018316928315610cea575b6020821084146105cc57818552849390811561056c5750600114610c70575003601f017fffffffffffffffffffffffffffffffffffffffffffffffffffffffffffffffe01681019067ffffffffffffffff8211818310176104c5576104c182918260405282610cf4565b60035f90815291507fc2575a0e9e593c00f959f8c92f12db2869c3395a3b0502d05e2516446f71f85b5b818310610cce57505081016020017fffffffffffffffffffffffffffffffffffffffffffffffffffffffffffffffe0610475565b6020919350806001915483858801015201910190918392610c9a565b90607f1690610c06565b7fffffffffffffffffffffffffffffffffffffffffffffffffffffffffffffffe0601f602060409481855280519182918282880152018686015e5f8582860101520116010190565b6004359073ffffffffffffffffffffffffffffffffffffffff821682036101c557565b6024359073ffffffffffffffffffffffffffffffffffffffff821682036101c557565b73ffffffffffffffffffffffffffffffffffffffff169081156103e45773ffffffffffffffffffffffffffffffffffffffff169182156108e257815f525f60205260405f2054818110610e1a57817fddf252ad1be2c89b69c2b068fc378daa952ba7f163c4a11628f55a4df523b3ef92602092855f525f84520360405f2055845f525f825260405f20818154019055604051908152a3565b827fe450d38c000000000000000000000000000000000000000000000000000000005f5260045260245260445260645ffd5b73ffffffffffffffffffffffffffffffffffffffff600554163303610e6d57565b7f118cdaa7000000000000000000000000000000000000000000000000000000005f523360045260245ffdfea164736f6c634300081a000a00000000000000000000000000000000000000000000000000000000000000c0000000000000000000000000000000000000000000000000000000000000010023f69f0ba1a2a702a2a935eb6a25ad537ffd05e5bed484159adfc5eecc102ea3000000000000000000000000000000000000000000000000000000000000000000000000000000000000000000000000000000000000000000000000697b9a0a000000000000000000000000b01e700266faae9b61d0f0e436961e1c5c441f15000000000000000000000000000000000000000000000000000000000000000a4f7574636f6d65204e4f0000000000000000000000000000000000000000000000000000000000000000000000000000000000000000000000000000000000024e4f000000000000000000000000000000000000000000000000000000000000"
        },
        {
          "transactionType": "CREATE",
          "contractName": "OutcomeToken",
          "address": "0xfd321c1ab025b4536e0a2d2e5af1a1b79f718d26",
          "initCode": "0x60e0604052346103e55761130680380380610019816103e9565b92833981019060c0818303126103e55780516001600160401b0381116103e5578261004591830161040e565b602082015190926001600160401b0382116103e55761006591830161040e565b604082015160608301519160ff831683036103e557608084015160a0909401516001600160a01b03811695908690036103e5578051906001600160401b0382116102e85760035490600182811c921680156103db575b60208310146102ca5781601f84931161036d575b50602090601f8311600114610307575f926102fc575b50508160011b915f199060031b1c1916176003555b8051906001600160401b0382116102e85760045490600182811c921680156102de575b60208310146102ca5781601f84931161025c575b50602090601f83116001146101f6575f926101eb575b50508160011b915f199060031b1c1916176004555b83156101d857600580546001600160a01b03198116861790915560405194906001600160a01b03167f8be0079c531659141344cd1fd0a4f28419497f9722a3daafe3b4186f6b6457e05f80a360805260a05260c052610ea69081610460823960805181610787015260a051816107e1015260c0518161028a0152f35b631e4fbdf760e01b5f525f60045260245ffd5b015190505f80610147565b60045f9081528281209350601f198516905b818110610244575090846001959493921061022c575b505050811b0160045561015c565b01515f1960f88460031b161c191690555f808061021e565b92936020600181928786015181550195019301610208565b60045f529091507f8a35acfbc15ff81a39ae7d344fd709f28e8600b4aa8c65c6b64bfe7fe36bd19b601f840160051c810191602085106102c0575b90601f859493920160051c01905b8181106102b25750610131565b5f81558493506001016102a5565b9091508190610297565b634e487b7160e01b5f52602260045260245ffd5b91607f169161011d565b634e487b7160e01b5f52604160045260245ffd5b015190505f806100e5565b60035f9081528281209350601f198516905b818110610355575090846001959493921061033d575b505050811b016003556100fa565b01515f1960f88460031b161c191690555f808061032f565b92936020600181928786015181550195019301610319565b60035f529091507fc2575a0e9e593c00f959f8c92f12db2869c3395a3b0502d05e2516446f71f85b601f840160051c810191602085106103d1575b90601f859493920160051c01905b8181106103c357506100cf565b5f81558493506001016103b6565b90915081906103a8565b91607f16916100bb565b5f80fd5b6040519190601f01601f191682016001600160401b038111838210176102e857604052565b81601f820112156103e5578051906001600160401b0382116102e85761043d601f8301601f19166020016103e9565b92828452602083830101116103e557815f9260208093018386015e830101529056fe6080806040526004361015610012575f80fd5b5f3560e01c90816306fdde0314610bc357508063095ea7b314610b1657806318160ddd14610adb57806323b872dd14610947578063313ce5671461090e57806340c10f19146108055780634cbe4389146107aa5780636ed71ede1461075257806370a08231146106f0578063715018a6146106545780638da5cb5b1461060357806395d89b41146104105780639dc29fac146102fc578063a9059cbb146102ad578063bce2255714610255578063dd62ed3e146101c95763f2fde38b146100d7575f80fd5b346101c55760207ffffffffffffffffffffffffffffffffffffffffffffffffffffffffffffffffc3601126101c55773ffffffffffffffffffffffffffffffffffffffff610123610d3c565b61012b610e4c565b1680156101995773ffffffffffffffffffffffffffffffffffffffff600554827fffffffffffffffffffffffff0000000000000000000000000000000000000000821617600555167f8be0079c531659141344cd1fd0a4f28419497f9722a3daafe3b4186f6b6457e05f80a3005b7f1e4fbdf7000000000000000000000000000000000000000000000000000000005f525f60045260245ffd5b5f80fd5b346101c55760407ffffffffffffffffffffffffffffffffffffffffffffffffffffffffffffffffc3601126101c557610200610d3c565b73ffffffffffffffffffffffffffffffffffffffff61021d610d5f565b91165f52600160205273ffffffffffffffffffffffffffffffffffffffff60405f2091165f52602052602060405f2054604051908152f35b346101c5575f7ffffffffffffffffffffffffffffffffffffffffffffffffffffffffffffffffc3601126101c55760206040517f00000000000000000000000000000000000000000000000000000000000000008152f35b346101c55760407ffffffffffffffffffffffffffffffffffffffffffffffffffffffffffffffffc3601126101c5576102f16102e7610d3c565b6024359033610d82565b602060405160018152f35b346101c55760407ffffffffffffffffffffffffffffffffffffffffffffffffffffffffffffffffc3601126101c557610333610d3c565b73ffffffffffffffffffffffffffffffffffffffff60243591610354610e4c565b1680156103e457805f525f60205260405f20548281106103b2576020835f947fddf252ad1be2c89b69c2b068fc378daa952ba7f163c4a11628f55a4df523b3ef938587528684520360408620558060025403600255604051908152a3005b907fe450d38c000000000000000000000000000000000000000000000000000000005f5260045260245260445260645ffd5b7f96c6fd1e000000000000000000000000000000000000000000000000000000005f525f60045260245ffd5b346101c5575f7ffffffffffffffffffffffffffffffffffffffffffffffffffffffffffffffffc3601126101c5576040515f600454908160011c600183169283156105f9575b6020821084146105cc57818552849390811561056c57506001146104f2575b5003601f017fffffffffffffffffffffffffffffffffffffffffffffffffffffffffffffffe01681019067ffffffffffffffff8211818310176104c5576104c182918260405282610cf4565b0390f35b7f4e487b71000000000000000000000000000000000000000000000000000000005f52604160045260245ffd5b60045f90815291507f8a35acfbc15ff81a39ae7d344fd709f28e8600b4aa8c65c6b64bfe7fe36bd19b5b81831061055057505081016020017fffffffffffffffffffffffffffffffffffffffffffffffffffffffffffffffe0610475565b602091935080600191548385880101520191019091839261051c565b7fffffffffffffffffffffffffffffffffffffffffffffffffffffffffffffff001660208581019190915291151560051b840190910191507fffffffffffffffffffffffffffffffffffffffffffffffffffffffffffffffe09050610475565b7f4e487b71000000000000000000000000000000000000000000000000000000005f52602260045260245ffd5b90607f1690610456565b346101c5575f7ffffffffffffffffffffffffffffffffffffffffffffffffffffffffffffffffc3601126101c557602073ffffffffffffffffffffffffffffffffffffffff60055416604051908152f35b346101c5575f7ffffffffffffffffffffffffffffffffffffffffffffffffffffffffffffffffc3601126101c55761068a610e4c565b5f73ffffffffffffffffffffffffffffffffffffffff6005547fffffffffffffffffffffffff00000000000000000000000000000000000000008116600555167f8be0079c531659141344cd1fd0a4f28419497f9722a3daafe3b4186f6b6457e08280a3005b346101c55760207ffffffffffffffffffffffffffffffffffffffffffffffffffffffffffffffffc3601126101c55773ffffffffffffffffffffffffffffffffffffffff61073c610d3c565b165f525f602052602060405f2054604051908152f35b346101c5575f7ffffffffffffffffffffffffffffffffffffffffffffffffffffffffffffffffc3601126101c55760206040517f00000000000000000000000000000000000000000000000000000000000000008152f35b346101c5575f7ffffffffffffffffffffffffffffffffffffffffffffffffffffffffffffffffc3601126101c557602060405160ff7f0000000000000000000000000000000000000000000000000000000000000000168152f35b346101c55760407ffffffffffffffffffffffffffffffffffffffffffffffffffffffffffffffffc3601126101c55761083c610d3c565b73ffffffffffffffffffffffffffffffffffffffff6024359161085d610e4c565b169081156108e257600254908082018092116108b55760207fddf252ad1be2c89b69c2b068fc378daa952ba7f163c4a11628f55a4df523b3ef915f9360025584845283825260408420818154019055604051908152a3005b7f4e487b71000000000000000000000000000000000000000000000000000000005f52601160045260245ffd5b7fec442f05000000000000000000000000000000000000000000000000000000005f525f60045260245ffd5b346101c5575f7ffffffffffffffffffffffffffffffffffffffffffffffffffffffffffffffffc3601126101c557602060405160128152f35b346101c55760607ffffffffffffffffffffffffffffffffffffffffffffffffffffffffffffffffc3601126101c55761097e610d3c565b610986610d5f565b6044359073ffffffffffffffffffffffffffffffffffffffff831692835f52600160205260405f2073ffffffffffffffffffffffffffffffffffffffff33165f5260205260405f20547fffffffffffffffffffffffffffffffffffffffffffffffffffffffffffffffff8110610a02575b506102f19350610d82565b838110610aa7578415610a7b573315610a4f576102f1945f52600160205260405f2073ffffffffffffffffffffffffffffffffffffffff33165f526020528360405f2091039055846109f7565b7f94280d62000000000000000000000000000000000000000000000000000000005f525f60045260245ffd5b7fe602df05000000000000000000000000000000000000000000000000000000005f525f60045260245ffd5b83907ffb8f41b2000000000000000000000000000000000000000000000000000000005f523360045260245260445260645ffd5b346101c5575f7ffffffffffffffffffffffffffffffffffffffffffffffffffffffffffffffffc3601126101c5576020600254604051908152f35b346101c55760407ffffffffffffffffffffffffffffffffffffffffffffffffffffffffffffffffc3601126101c557610b4d610d3c565b602435903315610a7b5773ffffffffffffffffffffffffffffffffffffffff16908115610a4f57335f52600160205260405f20825f526020528060405f20556040519081527f8c5be1e5ebec7d5bd14f71427d1e84f3dd0314c0f7b2291e5b200ac8c7c3b92560203392a3602060405160018152f35b346101c5575f7ffffffffffffffffffffffffffffffffffffffffffffffffffffffffffffffffc3601126101c5575f600354908160011c60018316928315610cea575b6020821084146105cc57818552849390811561056c5750600114610c70575003601f017fffffffffffffffffffffffffffffffffffffffffffffffffffffffffffffffe01681019067ffffffffffffffff8211818310176104c5576104c182918260405282610cf4565b60035f90815291507fc2575a0e9e593c00f959f8c92f12db2869c3395a3b0502d05e2516446f71f85b5b818310610cce57505081016020017fffffffffffffffffffffffffffffffffffffffffffffffffffffffffffffffe0610475565b6020919350806001915483858801015201910190918392610c9a565b90607f1690610c06565b7fffffffffffffffffffffffffffffffffffffffffffffffffffffffffffffffe0601f602060409481855280519182918282880152018686015e5f8582860101520116010190565b6004359073ffffffffffffffffffffffffffffffffffffffff821682036101c557565b6024359073ffffffffffffffffffffffffffffffffffffffff821682036101c557565b73ffffffffffffffffffffffffffffffffffffffff169081156103e45773ffffffffffffffffffffffffffffffffffffffff169182156108e257815f525f60205260405f2054818110610e1a57817fddf252ad1be2c89b69c2b068fc378daa952ba7f163c4a11628f55a4df523b3ef92602092855f525f84520360405f2055845f525f825260405f20818154019055604051908152a3565b827fe450d38c000000000000000000000000000000000000000000000000000000005f5260045260245260445260645ffd5b73ffffffffffffffffffffffffffffffffffffffff600554163303610e6d57565b7f118cdaa7000000000000000000000000000000000000000000000000000000005f523360045260245ffdfea164736f6c634300081a000a00000000000000000000000000000000000000000000000000000000000000c0000000000000000000000000000000000000000000000000000000000000010023f69f0ba1a2a702a2a935eb6a25ad537ffd05e5bed484159adfc5eecc102ea3000000000000000000000000000000000000000000000000000000000000000100000000000000000000000000000000000000000000000000000000697b9a0a000000000000000000000000b01e700266faae9b61d0f0e436961e1c5c441f15000000000000000000000000000000000000000000000000000000000000000b4f7574636f6d652059455300000000000000000000000000000000000000000000000000000000000000000000000000000000000000000000000000000000035945530000000000000000000000000000000000000000000000000000000000"
        }
      ],
      "isFixedGasLimit": false
    },
    {
      "hash": "0x9589a737bded462eb81ea6bbbeb852926730764761186dd2e5b7a87ecd9abd4b",
      "transactionType": "CALL",
      "contractName": null,
      "contractAddress": "0x05e73354cfdd6745c338b50bcfdfa3aa6fa03408",
      "function": "initialize((address,address,uint24,int24,address),uint160)",
      "arguments": [
        "(0x0000000000000000000000000000000000000000, 0x9b882e879Cf9aeEa8556560E467CD3bb87Af7F77, 3000, 60, 0x2B8DCE2F738BbFE5F84D62F55806AE6dDe68E0c0)",
        "79228162514264337593543950336"
      ],
      "transaction": {
        "from": "0x0c8624c46fd46181cd032b74910ca2b7be0f2c55",
        "to": "0x05e73354cfdd6745c338b50bcfdfa3aa6fa03408",
        "gas": "0x17256",
        "value": "0x0",
        "input": "0x6276cbbe00000000000000000000000000000000000000000000000000000000000000000000000000000000000000009b882e879cf9aeea8556560e467cd3bb87af7f770000000000000000000000000000000000000000000000000000000000000bb8000000000000000000000000000000000000000000000000000000000000003c0000000000000000000000002b8dce2f738bbfe5f84d62f55806ae6dde68e0c00000000000000000000000000000000000000001000000000000000000000000",
        "nonce": "0xd",
        "chainId": "0x14a34"
      },
      "additionalContracts": [],
      "isFixedGasLimit": false
    },
    {
      "hash": "0x5bf44fcd818e31bd428ef5d0804af2acdf279e1bf0f640d6a8a2607337dd0735",
      "transactionType": "CALL",
      "contractName": null,
      "contractAddress": "0x9b882e879cf9aeea8556560e467cd3bb87af7f77",
      "function": "approve(address,uint256)",
      "arguments": [
        "0xb01e700266faae9b61D0F0E436961e1C5c441F15",
        "10000000000"
      ],
      "transaction": {
        "from": "0x0c8624c46fd46181cd032b74910ca2b7be0f2c55",
        "to": "0x9b882e879cf9aeea8556560e467cd3bb87af7f77",
        "gas": "0x10608",
        "value": "0x0",
        "input": "0x095ea7b3000000000000000000000000b01e700266faae9b61d0f0e436961e1c5c441f1500000000000000000000000000000000000000000000000000000002540be400",
        "nonce": "0xe",
        "chainId": "0x14a34"
      },
      "additionalContracts": [],
      "isFixedGasLimit": false
    },
    {
      "hash": "0x0e52e08361eaef295496a57d95a27dd7c24e83348e95d689b25525c37157ea83",
      "transactionType": "CALL",
      "contractName": null,
      "contractAddress": "0xb01e700266faae9b61d0f0e436961e1c5c441f15",
      "function": "mintSet(bytes32,uint256)",
      "arguments": [
        "0x23f69f0ba1a2a702a2a935eb6a25ad537ffd05e5bed484159adfc5eecc102ea3",
        "10000000000"
      ],
      "transaction": {
        "from": "0x0c8624c46fd46181cd032b74910ca2b7be0f2c55",
        "to": "0xb01e700266faae9b61d0f0e436961e1c5c441f15",
        "gas": "0x3917a",
        "value": "0x0",
        "input": "0xdeea553423f69f0ba1a2a702a2a935eb6a25ad537ffd05e5bed484159adfc5eecc102ea300000000000000000000000000000000000000000000000000000002540be400",
        "nonce": "0xf",
        "chainId": "0x14a34"
      },
      "additionalContracts": [],
      "isFixedGasLimit": false
    },
    {
      "hash": "0xb2e065a7545fca9d2a4ebb07963c3819eea655725d3695a85509faeda7ea689b",
      "transactionType": "CALL",
      "contractName": null,
      "contractAddress": "0xb01e700266faae9b61d0f0e436961e1c5c441f15",
      "function": "burnSet(bytes32,uint256)",
      "arguments": [
        "0x23f69f0ba1a2a702a2a935eb6a25ad537ffd05e5bed484159adfc5eecc102ea3",
        "5000000000"
      ],
      "transaction": {
        "from": "0x0c8624c46fd46181cd032b74910ca2b7be0f2c55",
        "to": "0xb01e700266faae9b61d0f0e436961e1c5c441f15",
        "gas": "0x1ee55",
        "value": "0x0",
        "input": "0x9944c4c923f69f0ba1a2a702a2a935eb6a25ad537ffd05e5bed484159adfc5eecc102ea3000000000000000000000000000000000000000000000000000000012a05f200",
        "nonce": "0x10",
        "chainId": "0x14a34"
      },
      "additionalContracts": [],
      "isFixedGasLimit": false
    },
    {
      "hash": "0xd806d1b919ab2b34022fd9173d1d94bc787764f5088672f43f5ce7267fe89c97",
      "transactionType": "CALL",
      "contractName": null,
      "contractAddress": "0x27bb58451a8eabb79af749234874dcc8b99db40b",
      "function": "setLatestAnswer(int256)",
      "arguments": [
        "9500000000000"
      ],
      "transaction": {
        "from": "0x0c8624c46fd46181cd032b74910ca2b7be0f2c55",
        "to": "0x27bb58451a8eabb79af749234874dcc8b99db40b",
        "gas": "0x2f3b4",
        "value": "0x0",
        "input": "0x04ea97b0000000000000000000000000000000000000000000000000000008a3e4201800",
        "nonce": "0x11",
        "chainId": "0x14a34"
      },
      "additionalContracts": [],
      "isFixedGasLimit": false
    }
  ],
  "receipts": [
    {
      "status": "0x1",
      "cumulativeGasUsed": "0x3ef134",
      "logs": [
        {
          "address": "0x88dbba1f3c9e954ca7dcb2bc5a39710fbfc047ca",
          "topics": [
            "0x8be0079c531659141344cd1fd0a4f28419497f9722a3daafe3b4186f6b6457e0",
            "0x0000000000000000000000000000000000000000000000000000000000000000",
            "0x000000000000000000000000b01e700266faae9b61d0f0e436961e1c5c441f15"
          ],
          "data": "0x",
          "blockHash": "0x4b3ebb17b9704c4dcaab95eb0c80f598e6878ec6c1df3dfa190259a0222585b4",
          "blockNumber": "0x220571e",
          "blockTimestamp": "0x69540d1c",
          "transactionHash": "0xd806d1b919ab2b34022fd9173d1d94bc787764f5088672f43f5ce7267fe89c97",
          "transactionIndex": "0xb",
          "logIndex": "0x19",
          "removed": false
        },
        {
          "address": "0xfd321c1ab025b4536e0a2d2e5af1a1b79f718d26",
          "topics": [
            "0x8be0079c531659141344cd1fd0a4f28419497f9722a3daafe3b4186f6b6457e0",
            "0x0000000000000000000000000000000000000000000000000000000000000000",
            "0x000000000000000000000000b01e700266faae9b61d0f0e436961e1c5c441f15"
          ],
          "data": "0x",
          "blockHash": "0x4b3ebb17b9704c4dcaab95eb0c80f598e6878ec6c1df3dfa190259a0222585b4",
          "blockNumber": "0x220571e",
          "blockTimestamp": "0x69540d1c",
          "transactionHash": "0xd806d1b919ab2b34022fd9173d1d94bc787764f5088672f43f5ce7267fe89c97",
          "transactionIndex": "0xb",
          "logIndex": "0x1a",
          "removed": false
        }
      ],
      "logsBloom": "0x00000000000000000000000000000000000000000000000000800000000000000000000000000000000000000000000000000000000000000000000000000000000000100000000000000000000000000001000000000000000000000000000000000000020000000000000000000800000000000008000080000000010000400000000000000000000000000000000000000000000000000000000000000000000000000000000000100000000004000000000000040000000000000000000000000000000000000000100000000000000000000000000000000000000020000000000000000008000000000000000000000000000000000000000000000000",
      "type": "0x0",
      "transactionHash": "0xd806d1b919ab2b34022fd9173d1d94bc787764f5088672f43f5ce7267fe89c97",
      "transactionIndex": "0xb",
      "blockHash": "0x4b3ebb17b9704c4dcaab95eb0c80f598e6878ec6c1df3dfa190259a0222585b4",
      "blockNumber": "0x220571e",
      "gasUsed": "0x1e6860",
      "effectiveGasPrice": "0x124f80",
      "blobGasUsed": "0xbbb0",
      "from": "0x0c8624c46fd46181cd032b74910ca2b7be0f2c55",
      "to": "0x2b8dce2f738bbfe5f84d62f55806ae6dde68e0c0",
      "contractAddress": null,
      "daFootprintGasScalar": "0x138",
      "l1BaseFeeScalar": "0x44d",
      "l1BlobBaseFee": "0xb88",
      "l1BlobBaseFeeScalar": "0xa118b",
      "l1Fee": "0x65510",
      "l1GasPrice": "0xa26b",
      "l1GasUsed": "0x9ad"
    },
    {
      "status": "0x1",
      "cumulativeGasUsed": "0x3fee6d",
      "logs": [
        {
          "address": "0x2b8dce2f738bbfe5f84d62f55806ae6dde68e0c0",
          "topics": [
            "0x70d3a519bea820ee06e7dcf60182ce1f3be4af5377ad35a98b268d72fe7c6a7c",
            "0x8b7bb8a03155adf7ca4c962612670141c7ee73bc66d63471484ea21aa98e6d39",
            "0x23f69f0ba1a2a702a2a935eb6a25ad537ffd05e5bed484159adfc5eecc102ea3"
          ],
          "data": "0x00000000000000000000000000000000000000000000000000000000697b9a0a00000000000000000000000027bb58451a8eabb79af749234874dcc8b99db40b0000000000000000000000000000000000000000000000000000000000000002",
          "blockHash": "0x4b3ebb17b9704c4dcaab95eb0c80f598e6878ec6c1df3dfa190259a0222585b4",
          "blockNumber": "0x220571e",
          "blockTimestamp": "0x69540d1c",
          "transactionHash": "0xb2e065a7545fca9d2a4ebb07963c3819eea655725d3695a85509faeda7ea689b",
          "transactionIndex": "0xc",
          "logIndex": "0x1b",
          "removed": false
        },
        {
          "address": "0x05e73354cfdd6745c338b50bcfdfa3aa6fa03408",
          "topics": [
            "0xdd466e674ea557f56295e2d0218a125ea4b4f0f6f3307b95f85e6110838d6438",
            "0x8b7bb8a03155adf7ca4c962612670141c7ee73bc66d63471484ea21aa98e6d39",
            "0x0000000000000000000000000000000000000000000000000000000000000000",
            "0x0000000000000000000000009b882e879cf9aeea8556560e467cd3bb87af7f77"
          ],
          "data": "0x0000000000000000000000000000000000000000000000000000000000000bb8000000000000000000000000000000000000000000000000000000000000003c0000000000000000000000002b8dce2f738bbfe5f84d62f55806ae6dde68e0c000000000000000000000000000000000000000010000000000000000000000000000000000000000000000000000000000000000000000000000000000000000",
          "blockHash": "0x4b3ebb17b9704c4dcaab95eb0c80f598e6878ec6c1df3dfa190259a0222585b4",
          "blockNumber": "0x220571e",
          "blockTimestamp": "0x69540d1c",
          "transactionHash": "0xb2e065a7545fca9d2a4ebb07963c3819eea655725d3695a85509faeda7ea689b",
          "transactionIndex": "0xc",
          "logIndex": "0x1c",
          "removed": false
        }
      ],
      "logsBloom": "0x00001000000000000000000000000000000000000000000000000000000040000000000100008000000000000000000000000004000000000000000000000800000000000000000010000000000000000000000200004000000000000000000000000000020000000000800000000800000000000000000000000000000200000000000004000008000000000000000000000001000000000000000000200000000000200000000000000000000000000000000000000000000000000000000000000200001000000000000000002000000000000000000000000000000020000000000000000000000000000000000000000000200000000100000000000000",
      "type": "0x0",
      "transactionHash": "0xb2e065a7545fca9d2a4ebb07963c3819eea655725d3695a85509faeda7ea689b",
      "transactionIndex": "0xc",
      "blockHash": "0x4b3ebb17b9704c4dcaab95eb0c80f598e6878ec6c1df3dfa190259a0222585b4",
      "blockNumber": "0x220571e",
      "gasUsed": "0xfd39",
      "effectiveGasPrice": "0x124f80",
      "blobGasUsed": "0x8e98",
      "from": "0x0c8624c46fd46181cd032b74910ca2b7be0f2c55",
      "to": "0x05e73354cfdd6745c338b50bcfdfa3aa6fa03408",
      "contractAddress": null,
      "daFootprintGasScalar": "0x138",
      "l1BaseFeeScalar": "0x44d",
      "l1BlobBaseFee": "0xb88",
      "l1BlobBaseFeeScalar": "0xa118b",
      "l1Fee": "0x4caf1",
      "l1GasPrice": "0xa26b",
      "l1GasUsed": "0x752"
    },
    {
      "status": "0x1",
      "cumulativeGasUsed": "0x40a198",
      "logs": [
        {
          "address": "0x9b882e879cf9aeea8556560e467cd3bb87af7f77",
          "topics": [
            "0x8c5be1e5ebec7d5bd14f71427d1e84f3dd0314c0f7b2291e5b200ac8c7c3b925",
            "0x0000000000000000000000000c8624c46fd46181cd032b74910ca2b7be0f2c55",
            "0x000000000000000000000000b01e700266faae9b61d0f0e436961e1c5c441f15"
          ],
          "data": "0x00000000000000000000000000000000000000000000000000000002540be400",
          "blockHash": "0x4b3ebb17b9704c4dcaab95eb0c80f598e6878ec6c1df3dfa190259a0222585b4",
          "blockNumber": "0x220571e",
          "blockTimestamp": "0x69540d1c",
          "transactionHash": "0x9589a737bded462eb81ea6bbbeb852926730764761186dd2e5b7a87ecd9abd4b",
          "transactionIndex": "0xd",
          "logIndex": "0x1d",
          "removed": false
        }
      ],
      "logsBloom": "0x00040000000000000000000000000000000000000000000000000000000000000000000000000000000000000000000000000000000000000000000000200000000000000000000000000000000000000000000000000000000000000000000000000000000000000000000000000000000000000000000000000000010000000000000000000000000000000000000000000000000000040000000000000000020000000000000040000000000004001000000000040000000000000000000000000000000000000400000000000000000000000000000000000000000000000210000000000000000000000000000000000000000000000000000000000000",
      "type": "0x0",
      "transactionHash": "0x9589a737bded462eb81ea6bbbeb852926730764761186dd2e5b7a87ecd9abd4b",
      "transactionIndex": "0xd",
      "blockHash": "0x4b3ebb17b9704c4dcaab95eb0c80f598e6878ec6c1df3dfa190259a0222585b4",
      "blockNumber": "0x220571e",
      "gasUsed": "0xb32b",
      "effectiveGasPrice": "0x124f80",
      "blobGasUsed": "0x79e0",
      "from": "0x0c8624c46fd46181cd032b74910ca2b7be0f2c55",
      "to": "0x9b882e879cf9aeea8556560e467cd3bb87af7f77",
      "contractAddress": null,
      "daFootprintGasScalar": "0x138",
      "l1BaseFeeScalar": "0x44d",
      "l1BlobBaseFee": "0xb88",
      "l1BlobBaseFeeScalar": "0xa118b",
      "l1Fee": "0x41701",
      "l1GasPrice": "0xa26b",
      "l1GasUsed": "0x640"
    },
    {
      "status": "0x1",
      "cumulativeGasUsed": "0x4336f0",
      "logs": [
        {
          "address": "0x9b882e879cf9aeea8556560e467cd3bb87af7f77",
          "topics": [
            "0xddf252ad1be2c89b69c2b068fc378daa952ba7f163c4a11628f55a4df523b3ef",
            "0x0000000000000000000000000c8624c46fd46181cd032b74910ca2b7be0f2c55",
            "0x000000000000000000000000b01e700266faae9b61d0f0e436961e1c5c441f15"
          ],
          "data": "0x00000000000000000000000000000000000000000000000000000002540be400",
          "blockHash": "0x4b3ebb17b9704c4dcaab95eb0c80f598e6878ec6c1df3dfa190259a0222585b4",
          "blockNumber": "0x220571e",
          "blockTimestamp": "0x69540d1c",
          "transactionHash": "0x5bf44fcd818e31bd428ef5d0804af2acdf279e1bf0f640d6a8a2607337dd0735",
          "transactionIndex": "0xe",
          "logIndex": "0x1e",
          "removed": false
        },
        {
          "address": "0x88dbba1f3c9e954ca7dcb2bc5a39710fbfc047ca",
          "topics": [
            "0xddf252ad1be2c89b69c2b068fc378daa952ba7f163c4a11628f55a4df523b3ef",
            "0x0000000000000000000000000000000000000000000000000000000000000000",
            "0x0000000000000000000000000c8624c46fd46181cd032b74910ca2b7be0f2c55"
          ],
          "data": "0x00000000000000000000000000000000000000000000000000000002540be400",
          "blockHash": "0x4b3ebb17b9704c4dcaab95eb0c80f598e6878ec6c1df3dfa190259a0222585b4",
          "blockNumber": "0x220571e",
          "blockTimestamp": "0x69540d1c",
          "transactionHash": "0x5bf44fcd818e31bd428ef5d0804af2acdf279e1bf0f640d6a8a2607337dd0735",
          "transactionIndex": "0xe",
          "logIndex": "0x1f",
          "removed": false
        },
        {
          "address": "0xfd321c1ab025b4536e0a2d2e5af1a1b79f718d26",
          "topics": [
            "0xddf252ad1be2c89b69c2b068fc378daa952ba7f163c4a11628f55a4df523b3ef",
            "0x0000000000000000000000000000000000000000000000000000000000000000",
            "0x0000000000000000000000000c8624c46fd46181cd032b74910ca2b7be0f2c55"
          ],
          "data": "0x00000000000000000000000000000000000000000000000000000002540be400",
          "blockHash": "0x4b3ebb17b9704c4dcaab95eb0c80f598e6878ec6c1df3dfa190259a0222585b4",
          "blockNumber": "0x220571e",
          "blockTimestamp": "0x69540d1c",
          "transactionHash": "0x5bf44fcd818e31bd428ef5d0804af2acdf279e1bf0f640d6a8a2607337dd0735",
          "transactionIndex": "0xe",
          "logIndex": "0x20",
          "removed": false
        },
        {
          "address": "0xb01e700266faae9b61d0f0e436961e1c5c441f15",
          "topics": [
            "0x813e2579a92a565ab6a2365d73d2275473713b9c3e219dba345be1e526bc5ce9",
            "0x0000000000000000000000000c8624c46fd46181cd032b74910ca2b7be0f2c55",
            "0x23f69f0ba1a2a702a2a935eb6a25ad537ffd05e5bed484159adfc5eecc102ea3"
          ],
          "data": "0x00000000000000000000000000000000000000000000000000000002540be40000000000000000000000000000000000000000000000000000000002540be400",
          "blockHash": "0x4b3ebb17b9704c4dcaab95eb0c80f598e6878ec6c1df3dfa190259a0222585b4",
          "blockNumber": "0x220571e",
          "blockTimestamp": "0x69540d1c",
          "transactionHash": "0x5bf44fcd818e31bd428ef5d0804af2acdf279e1bf0f640d6a8a2607337dd0735",
          "transactionIndex": "0xe",
          "logIndex": "0x21",
          "removed": false
        }
      ],
      "logsBloom": "0x00040000000000000000000000000000000000000000200000000000000000000000000000000000000000000000000000000000000000000000000000000000000000100000000010000008000000000000000000000000000000000000000000008000020000000000000000000800000000000008000080000010010000000000000000000000000000000000000800000000000000040000020000000000000000200000000040100000000004001000000000040000000000000000000000000002000000400400100000002000000000000000000000000000000020000200000000000008000000000000000000000000000000000000000000000000",
      "type": "0x0",
      "transactionHash": "0x5bf44fcd818e31bd428ef5d0804af2acdf279e1bf0f640d6a8a2607337dd0735",
      "transactionIndex": "0xe",
      "blockHash": "0x4b3ebb17b9704c4dcaab95eb0c80f598e6878ec6c1df3dfa190259a0222585b4",
      "blockNumber": "0x220571e",
      "gasUsed": "0x29558",
      "effectiveGasPrice": "0x124f80",
      "blobGasUsed": "0x79e0",
      "from": "0x0c8624c46fd46181cd032b74910ca2b7be0f2c55",
      "to": "0xb01e700266faae9b61d0f0e436961e1c5c441f15",
      "contractAddress": null,
      "daFootprintGasScalar": "0x138",
      "l1BaseFeeScalar": "0x44d",
      "l1BlobBaseFee": "0xb88",
      "l1BlobBaseFeeScalar": "0xa118b",
      "l1Fee": "0x41701",
      "l1GasPrice": "0xa26b",
      "l1GasUsed": "0x640"
    },
    {
      "status": "0x1",
      "cumulativeGasUsed": "0x4488f2",
      "logs": [
        {
          "address": "0x88dbba1f3c9e954ca7dcb2bc5a39710fbfc047ca",
          "topics": [
            "0xddf252ad1be2c89b69c2b068fc378daa952ba7f163c4a11628f55a4df523b3ef",
            "0x0000000000000000000000000c8624c46fd46181cd032b74910ca2b7be0f2c55",
            "0x0000000000000000000000000000000000000000000000000000000000000000"
          ],
          "data": "0x000000000000000000000000000000000000000000000000000000012a05f200",
          "blockHash": "0x4b3ebb17b9704c4dcaab95eb0c80f598e6878ec6c1df3dfa190259a0222585b4",
          "blockNumber": "0x220571e",
          "blockTimestamp": "0x69540d1c",
          "transactionHash": "0xb067fd96ff6dbf90f93f9b340c0c849f0973b36bc04fa07dc6f7c60c257f77fb",
          "transactionIndex": "0xf",
          "logIndex": "0x22",
          "removed": false
        },
        {
          "address": "0xfd321c1ab025b4536e0a2d2e5af1a1b79f718d26",
          "topics": [
            "0xddf252ad1be2c89b69c2b068fc378daa952ba7f163c4a11628f55a4df523b3ef",
            "0x0000000000000000000000000c8624c46fd46181cd032b74910ca2b7be0f2c55",
            "0x0000000000000000000000000000000000000000000000000000000000000000"
          ],
          "data": "0x000000000000000000000000000000000000000000000000000000012a05f200",
          "blockHash": "0x4b3ebb17b9704c4dcaab95eb0c80f598e6878ec6c1df3dfa190259a0222585b4",
          "blockNumber": "0x220571e",
          "blockTimestamp": "0x69540d1c",
          "transactionHash": "0xb067fd96ff6dbf90f93f9b340c0c849f0973b36bc04fa07dc6f7c60c257f77fb",
          "transactionIndex": "0xf",
          "logIndex": "0x23",
          "removed": false
        },
        {
          "address": "0x9b882e879cf9aeea8556560e467cd3bb87af7f77",
          "topics": [
            "0xddf252ad1be2c89b69c2b068fc378daa952ba7f163c4a11628f55a4df523b3ef",
            "0x000000000000000000000000b01e700266faae9b61d0f0e436961e1c5c441f15",
            "0x0000000000000000000000000c8624c46fd46181cd032b74910ca2b7be0f2c55"
          ],
          "data": "0x000000000000000000000000000000000000000000000000000000012a05f200",
          "blockHash": "0x4b3ebb17b9704c4dcaab95eb0c80f598e6878ec6c1df3dfa190259a0222585b4",
          "blockNumber": "0x220571e",
          "blockTimestamp": "0x69540d1c",
          "transactionHash": "0xb067fd96ff6dbf90f93f9b340c0c849f0973b36bc04fa07dc6f7c60c257f77fb",
          "transactionIndex": "0xf",
          "logIndex": "0x24",
          "removed": false
        },
        {
          "address": "0xb01e700266faae9b61d0f0e436961e1c5c441f15",
          "topics": [
            "0xe2d4d7dba01a1ee53f5a45feaa5f010dc400efd79be795f34873a06bcc06d0b3",
            "0x0000000000000000000000000c8624c46fd46181cd032b74910ca2b7be0f2c55",
            "0x23f69f0ba1a2a702a2a935eb6a25ad537ffd05e5bed484159adfc5eecc102ea3"
          ],
          "data": "0x000000000000000000000000000000000000000000000000000000012a05f200000000000000000000000000000000000000000000000000000000012a05f200",
          "blockHash": "0x4b3ebb17b9704c4dcaab95eb0c80f598e6878ec6c1df3dfa190259a0222585b4",
          "blockNumber": "0x220571e",
          "blockTimestamp": "0x69540d1c",
          "transactionHash": "0xb067fd96ff6dbf90f93f9b340c0c849f0973b36bc04fa07dc6f7c60c257f77fb",
          "transactionIndex": "0xf",
          "logIndex": "0x25",
          "removed": false
        }
      ],
      "logsBloom": "0x00040000000000000000000000000000000000000000000000000000000000000000000000000000000000000000000000000000000000000000000000000000000000100000000010000008000000000080000000000000000000000000000000008000020000000000000000000800000000000008000080000010010000000000000000000000000000000000000800000000000000040000020000000000000000200000000040100000000004001000800000040000000000000000000000000002000000000400100000002000000000000000000000000000000020000200010000000008000000000000000000000000000000000000000000000000",
      "type": "0x0",
      "transactionHash": "0xb067fd96ff6dbf90f93f9b340c0c849f0973b36bc04fa07dc6f7c60c257f77fb",
      "transactionIndex": "0xf",
      "blockHash": "0x4b3ebb17b9704c4dcaab95eb0c80f598e6878ec6c1df3dfa190259a0222585b4",
      "blockNumber": "0x220571e",
      "gasUsed": "0x15202",
      "effectiveGasPrice": "0x124f80",
      "blobGasUsed": "0x79e0",
      "from": "0x0c8624c46fd46181cd032b74910ca2b7be0f2c55",
      "to": "0xb01e700266faae9b61d0f0e436961e1c5c441f15",
      "contractAddress": null,
      "daFootprintGasScalar": "0x138",
      "l1BaseFeeScalar": "0x44d",
      "l1BlobBaseFee": "0xb88",
      "l1BlobBaseFeeScalar": "0xa118b",
      "l1Fee": "0x41701",
      "l1GasPrice": "0xa26b",
      "l1GasUsed": "0x640"
    },
    {
      "status": "0x1",
      "cumulativeGasUsed": "0x468dab",
      "logs": [],
      "logsBloom": "0x00000000000000000000000000000000000000000000000000000000000000000000000000000000000000000000000000000000000000000000000000000000000000000000000000000000000000000000000000000000000000000000000000000000000000000000000000000000000000000000000000000000000000000000000000000000000000000000000000000000000000000000000000000000000000000000000000000000000000000000000000000000000000000000000000000000000000000000000000000000000000000000000000000000000000000000000000000000000000000000000000000000000000000000000000000000",
      "type": "0x0",
      "transactionHash": "0x0e52e08361eaef295496a57d95a27dd7c24e83348e95d689b25525c37157ea83",
      "transactionIndex": "0x10",
      "blockHash": "0x4b3ebb17b9704c4dcaab95eb0c80f598e6878ec6c1df3dfa190259a0222585b4",
      "blockNumber": "0x220571e",
      "gasUsed": "0x204b9",
      "effectiveGasPrice": "0x124f80",
      "blobGasUsed": "0x79e0",
      "from": "0x0c8624c46fd46181cd032b74910ca2b7be0f2c55",
      "to": "0x27bb58451a8eabb79af749234874dcc8b99db40b",
      "contractAddress": null,
      "daFootprintGasScalar": "0x138",
      "l1BaseFeeScalar": "0x44d",
      "l1BlobBaseFee": "0xb88",
      "l1BlobBaseFeeScalar": "0xa118b",
      "l1Fee": "0x41701",
      "l1GasPrice": "0xa26b",
      "l1GasUsed": "0x640"
    }
  ],
  "libraries": [],
  "pending": [],
  "returns": {},
  "timestamp": 1767116061171,
  "chain": 84532,
  "commit": "8c449bd"
}